:03000000020100FA
:10010000780079007B007A00319D74009001E378DB
:100110000379027B007A01C082C083908000740161
:10012000F031C9D083D082B29231D6B29231D6B2F8
:100130009231D60BEBC3941070027B00EB9001E37D
:1001400031710AEAC3941070027A00EA9001E53135
:100150007109E9C3941070027900E99001E73171E7
:1001600008E8C3941070027800E89001E9317180CA
:10017000A644807CFFC083C08231B5908000F0D05F
:1001800082D083EC936015C083C082908001F0D050
:1001900082D08331B50CB29231D621832290800077
:1001A0007438F031C9740EF031C97401F031C9747A
:1001B00006F031C922C083C082C0E0908002E020F6
:1001C000E7F9D0E0D082D083227F017E647D64DDB8
:1001D000FEDEFADFF6227F147E647D64DDFEDEFA49
:0B01E000DFF62238003000350031004F
:00000001FF
